{
  "contractName": "CursosFactory",
  "abi": [
    {
      "anonymous": false,
      "inputs": [
        {
          "indexed": true,
          "internalType": "address",
          "name": "previousOwner",
          "type": "address"
        },
        {
          "indexed": true,
          "internalType": "address",
          "name": "newOwner",
          "type": "address"
        }
      ],
      "name": "OwnershipTransferred",
      "type": "event"
    },
    {
      "inputs": [
        {
          "internalType": "address",
          "name": "",
          "type": "address"
        },
        {
          "internalType": "uint256",
          "name": "",
          "type": "uint256"
        }
      ],
      "name": "aprobados",
      "outputs": [
        {
          "internalType": "bool",
          "name": "soloCursada",
          "type": "bool"
        },
        {
          "internalType": "uint8",
          "name": "nota",
          "type": "uint8"
        },
        {
          "internalType": "uint256",
          "name": "fechaDeAprobacion",
          "type": "uint256"
        }
      ],
      "stateMutability": "view",
      "type": "function",
      "constant": true
    },
    {
      "inputs": [],
      "name": "cantidadCursos",
      "outputs": [
        {
          "internalType": "uint256",
          "name": "",
          "type": "uint256"
        }
      ],
      "stateMutability": "view",
      "type": "function",
      "constant": true
    },
    {
      "inputs": [
        {
          "internalType": "uint256",
          "name": "",
          "type": "uint256"
        },
        {
          "internalType": "uint256",
          "name": "",
          "type": "uint256"
        }
      ],
      "name": "correlativasCurso",
      "outputs": [
        {
          "internalType": "uint8",
          "name": "",
          "type": "uint8"
        }
      ],
      "stateMutability": "view",
      "type": "function",
      "constant": true
    },
    {
      "inputs": [
        {
          "internalType": "address",
          "name": "",
          "type": "address"
        }
      ],
      "name": "creditos",
      "outputs": [
        {
          "internalType": "uint256",
          "name": "",
          "type": "uint256"
        }
      ],
      "stateMutability": "view",
      "type": "function",
      "constant": true
    },
    {
      "inputs": [
        {
          "internalType": "uint256",
          "name": "",
          "type": "uint256"
        }
      ],
      "name": "cursos",
      "outputs": [
        {
          "internalType": "uint256",
          "name": "id",
          "type": "uint256"
        },
        {
          "internalType": "string",
          "name": "nombre",
          "type": "string"
        },
        {
          "internalType": "uint8",
          "name": "creditos",
          "type": "uint8"
        },
        {
          "internalType": "bool",
          "name": "activo",
          "type": "bool"
        },
        {
          "internalType": "address",
          "name": "profesor",
          "type": "address"
        }
      ],
      "stateMutability": "view",
      "type": "function",
      "constant": true
    },
    {
      "inputs": [],
      "name": "decimals",
      "outputs": [
        {
          "internalType": "uint8",
          "name": "",
          "type": "uint8"
        }
      ],
      "stateMutability": "pure",
      "type": "function",
      "constant": true
    },
    {
      "inputs": [],
      "name": "name",
      "outputs": [
        {
          "internalType": "string",
          "name": "",
          "type": "string"
        }
      ],
      "stateMutability": "pure",
      "type": "function",
      "constant": true
    },
    {
      "inputs": [],
      "name": "owner",
      "outputs": [
        {
          "internalType": "address",
          "name": "",
          "type": "address"
        }
      ],
      "stateMutability": "view",
      "type": "function",
      "constant": true
    },
    {
      "inputs": [],
      "name": "renounceOwnership",
      "outputs": [],
      "stateMutability": "nonpayable",
      "type": "function"
    },
    {
      "inputs": [],
      "name": "symbol",
      "outputs": [
        {
          "internalType": "string",
          "name": "",
          "type": "string"
        }
      ],
      "stateMutability": "pure",
      "type": "function",
      "constant": true
    },
    {
      "inputs": [
        {
          "internalType": "address",
          "name": "newOwner",
          "type": "address"
        }
      ],
      "name": "transferOwnership",
      "outputs": [],
      "stateMutability": "nonpayable",
      "type": "function"
    },
    {
      "inputs": [
        {
          "internalType": "string",
          "name": "_nombre",
          "type": "string"
        },
        {
          "internalType": "uint8",
          "name": "_creditos",
          "type": "uint8"
        },
        {
          "internalType": "uint8[]",
          "name": "_correlativas",
          "type": "uint8[]"
        },
        {
          "internalType": "bool",
          "name": "_activo",
          "type": "bool"
        },
        {
          "internalType": "address",
          "name": "_profesor",
          "type": "address"
        }
      ],
      "name": "crearCurso",
      "outputs": [],
      "stateMutability": "nonpayable",
      "type": "function"
    },
    {
      "inputs": [
        {
          "internalType": "uint256",
          "name": "_cursoId",
          "type": "uint256"
        },
        {
          "internalType": "string",
          "name": "_nombre",
          "type": "string"
        },
        {
          "internalType": "uint8",
          "name": "_creditos",
          "type": "uint8"
        },
        {
          "internalType": "uint8[]",
          "name": "_correlativas",
          "type": "uint8[]"
        },
        {
          "internalType": "bool",
          "name": "_activo",
          "type": "bool"
        },
        {
          "internalType": "address",
          "name": "_profesor",
          "type": "address"
        }
      ],
      "name": "modificarCurso",
      "outputs": [],
      "stateMutability": "nonpayable",
      "type": "function"
    },
    {
      "inputs": [
        {
          "internalType": "uint8",
          "name": "_notaMaxima",
          "type": "uint8"
        }
      ],
      "name": "setearNotaMaxima",
      "outputs": [],
      "stateMutability": "nonpayable",
      "type": "function"
    },
    {
      "inputs": [
        {
          "internalType": "uint8",
          "name": "_notaMinima",
          "type": "uint8"
        }
      ],
      "name": "setearNotaMinima",
      "outputs": [],
      "stateMutability": "nonpayable",
      "type": "function"
    },
    {
      "inputs": [
        {
          "internalType": "address",
          "name": "_alumno",
          "type": "address"
        },
        {
          "internalType": "uint256",
          "name": "_cursoId",
          "type": "uint256"
        },
        {
          "internalType": "bool",
          "name": "_soloCursada",
          "type": "bool"
        },
        {
          "internalType": "uint8",
          "name": "_nota",
          "type": "uint8"
        },
        {
          "internalType": "uint256",
          "name": "_fechaDeAprobacion",
          "type": "uint256"
        }
      ],
      "name": "aprobarAlumno",
      "outputs": [],
      "stateMutability": "nonpayable",
      "type": "function"
    },
    {
      "inputs": [
        {
          "internalType": "address",
          "name": "_alumno",
          "type": "address"
        },
        {
          "internalType": "uint256",
          "name": "_cursoId",
          "type": "uint256"
        }
      ],
      "name": "removerAlumnoDelCurso",
      "outputs": [],
      "stateMutability": "nonpayable",
      "type": "function"
    },
    {
      "inputs": [
        {
          "internalType": "address",
          "name": "_alumno",
          "type": "address"
        }
      ],
      "name": "removerCursadasVencidas",
      "outputs": [],
      "stateMutability": "nonpayable",
      "type": "function"
    },
    {
      "inputs": [
        {
          "internalType": "uint256",
          "name": "_cursoId",
          "type": "uint256"
        }
      ],
      "name": "getCurso",
      "outputs": [
        {
          "internalType": "uint256",
          "name": "",
          "type": "uint256"
        },
        {
          "internalType": "string",
          "name": "",
          "type": "string"
        },
        {
          "internalType": "uint8",
          "name": "",
          "type": "uint8"
        },
        {
          "internalType": "uint8[]",
          "name": "",
          "type": "uint8[]"
        },
        {
          "internalType": "bool",
          "name": "",
          "type": "bool"
        },
        {
          "internalType": "address",
          "name": "",
          "type": "address"
        }
      ],
      "stateMutability": "view",
      "type": "function",
      "constant": true
    },
    {
      "inputs": [
        {
          "internalType": "address",
          "name": "_alumno",
          "type": "address"
        }
      ],
      "name": "getAlumno",
      "outputs": [
        {
          "internalType": "address",
          "name": "",
          "type": "address"
        },
        {
          "internalType": "uint256",
          "name": "",
          "type": "uint256"
        },
        {
          "internalType": "uint256[]",
          "name": "",
          "type": "uint256[]"
        },
        {
          "internalType": "bool[]",
          "name": "",
          "type": "bool[]"
        },
        {
          "internalType": "uint8[]",
          "name": "",
          "type": "uint8[]"
        },
        {
          "internalType": "uint256[]",
          "name": "",
          "type": "uint256[]"
        }
      ],
      "stateMutability": "view",
      "type": "function",
      "constant": true
    },
    {
      "inputs": [
        {
          "internalType": "address",
          "name": "_owner",
          "type": "address"
        }
      ],
      "name": "balanceOf",
      "outputs": [
        {
          "internalType": "uint256",
          "name": "_balance",
          "type": "uint256"
        }
      ],
      "stateMutability": "view",
      "type": "function",
      "constant": true
    }
  ],
  "bytecode": "0x6080604052600a600260006101000a81548160ff021916908360ff1602179055506004600260016101000a81548160ff021916908360ff160217905550600060035534801561004d57600080fd5b50600061005e61010160201b60201c565b9050806000806101000a81548173ffffffffffffffffffffffffffffffffffffffff021916908373ffffffffffffffffffffffffffffffffffffffff1602179055508073ffffffffffffffffffffffffffffffffffffffff16600073ffffffffffffffffffffffffffffffffffffffff167f8be0079c531659141344cd1fd0a4f28419497f9722a3daafe3b4186f6b6457e060405160405180910390a350610109565b600033905090565b61306d80620001196000396000f3fe608060405234801561001057600080fd5b50600436106101375760003560e01c80638da5cb5b116100b8578063c51c4bf61161007c578063c51c4bf614610343578063c94bd14014610377578063d792219e14610393578063e64ecf47146103af578063e670f97e146103e4578063f2fde38b1461040057610137565b80638da5cb5b1461028657806395d89b41146102a4578063ab3ff682146102c2578063b0f53705146102f7578063bd0aa2861461032757610137565b806370a08231116100ff57806370a08231146101e2578063715018a61461021257806373452f471461021c57806381c2b05f14610238578063828460ee1461026a57610137565b806306fdde031461013c5780630dac66bd1461015a5780630ef0b7351461018a578063173b04ca146101a8578063313ce567146101c4575b600080fd5b61014461041c565b6040516101519190612827565b60405180910390f35b610174600480360381019061016f9190612165565b610459565b6040516101819190612929565b60405180910390f35b610192610471565b60405161019f9190612929565b60405180910390f35b6101c260048036038101906101bd9190612432565b610477565b005b6101cc610511565b6040516101d99190612a0d565b60405180910390f35b6101fc60048036038101906101f79190612165565b610516565b6040516102099190612929565b60405180910390f35b61021a61055f565b005b6102366004803603810190610231919061232d565b610699565b005b610252600480360381019061024d9190612192565b610801565b604051610261939291906127f0565b60405180910390f35b610284600480360381019061027f9190612192565b610852565b005b61028e610915565b60405161029b9190612758565b60405180910390f35b6102ac61093e565b6040516102b99190612827565b60405180910390f35b6102dc60048036038101906102d79190612300565b61097b565b6040516102ee96959493929190612944565b60405180910390f35b610311600480360381019061030c91906123f2565b610bff565b60405161031e9190612a0d565b60405180910390f35b610341600480360381019061033c9190612165565b610c42565b005b61035d60048036038101906103589190612300565b610d48565b60405161036e9594939291906129b3565b60405180910390f35b610391600480360381019061038c919061224d565b610e50565b005b6103ad60048036038101906103a891906121d2565b610fd3565b005b6103c960048036038101906103c49190612165565b611501565b6040516103db96959493929190612773565b60405180910390f35b6103fe60048036038101906103f99190612432565b6119ba565b005b61041a60048036038101906104159190612165565b611a54565b005b60606040518060400160405280600b81526020017f46495542412d544f4b454e000000000000000000000000000000000000000000815250905090565b60056020528060005260406000206000915090505481565b60035481565b61047f611bfd565b73ffffffffffffffffffffffffffffffffffffffff1661049d610915565b73ffffffffffffffffffffffffffffffffffffffff16146104f3576040517f08c379a00000000000000000000000000000000000000000000000000000000081526004016104ea90612909565b60405180910390fd5b80600260006101000a81548160ff021916908360ff16021790555050565b600090565b6000600560008373ffffffffffffffffffffffffffffffffffffffff1673ffffffffffffffffffffffffffffffffffffffff168152602001908152602001600020549050919050565b610567611bfd565b73ffffffffffffffffffffffffffffffffffffffff16610585610915565b73ffffffffffffffffffffffffffffffffffffffff16146105db576040517f08c379a00000000000000000000000000000000000000000000000000000000081526004016105d290612909565b60405180910390fd5b600073ffffffffffffffffffffffffffffffffffffffff1660008054906101000a900473ffffffffffffffffffffffffffffffffffffffff1673ffffffffffffffffffffffffffffffffffffffff167f8be0079c531659141344cd1fd0a4f28419497f9722a3daafe3b4186f6b6457e060405160405180910390a360008060006101000a81548173ffffffffffffffffffffffffffffffffffffffff021916908373ffffffffffffffffffffffffffffffffffffffff160217905550565b6106a1611bfd565b73ffffffffffffffffffffffffffffffffffffffff166106bf610915565b73ffffffffffffffffffffffffffffffffffffffff1614610715576040517f08c379a000000000000000000000000000000000000000000000000000000000815260040161070c90612909565b60405180910390fd5b60006001878154811061072b5761072a612d9c565b5b9060005260206000209060030201905085816001019080519060200190610753929190611eb9565b50848160020160006101000a81548160ff021916908360ff160217905550828160020160016101000a81548160ff021916908315150217905550818160020160026101000a81548173ffffffffffffffffffffffffffffffffffffffff021916908373ffffffffffffffffffffffffffffffffffffffff160217905550836004600089815260200190815260200160002090805190602001906107f7929190611f3f565b5050505050505050565b6006602052816000526040600020602052806000526040600020600091509150508060000160009054906101000a900460ff16908060000160019054906101000a900460ff16908060010154905083565b803373ffffffffffffffffffffffffffffffffffffffff166001828154811061087e5761087d612d9c565b5b906000526020600020906003020160020160029054906101000a900473ffffffffffffffffffffffffffffffffffffffff1673ffffffffffffffffffffffffffffffffffffffff1614610906576040517f08c379a00000000000000000000000000000000000000000000000000000000081526004016108fd90612889565b60405180910390fd5b6109108383611c05565b505050565b60008060009054906101000a900473ffffffffffffffffffffffffffffffffffffffff16905090565b60606040518060400160405280600381526020017f4655430000000000000000000000000000000000000000000000000000000000815250905090565b600060606000606060008060006001888154811061099c5761099b612d9c565b5b90600052602060002090600302016040518060a0016040529081600082015481526020016001820180546109cf90612c92565b80601f01602080910402602001604051908101604052809291908181526020018280546109fb90612c92565b8015610a485780601f10610a1d57610100808354040283529160200191610a48565b820191906000526020600020905b815481529060010190602001808311610a2b57829003601f168201915b505050505081526020016002820160009054906101000a900460ff1660ff1660ff1681526020016002820160019054906101000a900460ff161515151581526020016002820160029054906101000a900473ffffffffffffffffffffffffffffffffffffffff1673ffffffffffffffffffffffffffffffffffffffff1673ffffffffffffffffffffffffffffffffffffffff168152505090506000600460008a81526020019081526020016000208054905067ffffffffffffffff811115610b1357610b12612dcb565b5b604051908082528060200260200182016040528015610b415781602001602082028036833780820191505090505b509050600460008a8152602001908152602001600020805480602002602001604051908101604052809291908181526020018280548015610bc757602002820191906000526020600020906000905b82829054906101000a900460ff1660ff1681526020019060010190602082600001049283019260010382029150808411610b905790505b505050505090508160000151826020015183604001518385606001518660800151975097509750975097509750505091939550919395565b60046020528160005260406000208181548110610c1b57600080fd5b9060005260206000209060209182820401919006915091509054906101000a900460ff1681565b60005b600180549050811015610d44576000600660008473ffffffffffffffffffffffffffffffffffffffff1673ffffffffffffffffffffffffffffffffffffffff168152602001908152602001600020600060018481548110610ca957610ca8612d9c565b5b906000526020600020906003020160000154815260200190815260200160002090506302d2760042610cdb9190612bc7565b8160010154108015610cfb57508060000160009054906101000a900460ff165b15610d3057610d2f8360018481548110610d1857610d17612d9c565b5b906000526020600020906003020160000154611c05565b5b508080610d3c90612cf5565b915050610c45565b5050565b60018181548110610d5857600080fd5b9060005260206000209060030201600091509050806000015490806001018054610d8190612c92565b80601f0160208091040260200160405190810160405280929190818152602001828054610dad90612c92565b8015610dfa5780601f10610dcf57610100808354040283529160200191610dfa565b820191906000526020600020905b815481529060010190602001808311610ddd57829003601f168201915b5050505050908060020160009054906101000a900460ff16908060020160019054906101000a900460ff16908060020160029054906101000a900473ffffffffffffffffffffffffffffffffffffffff16905085565b610e58611bfd565b73ffffffffffffffffffffffffffffffffffffffff16610e76610915565b73ffffffffffffffffffffffffffffffffffffffff1614610ecc576040517f08c379a0000000000000000000000000000000000000000000000000000000008152600401610ec390612909565b60405180910390fd5b8260005b8151811015610f5157600180549050828281518110610ef257610ef1612d9c565b5b602002602001015160ff161115610f3e576040517f08c379a0000000000000000000000000000000000000000000000000000000008152600401610f35906128c9565b60405180910390fd5b8080610f4990612cf5565b915050610ed0565b5060018081600181540180825580915050039060005260206000209050506000600160035481548110610f8757610f86612d9c565b5b906000526020600020906003020190506003548160000181905550610fb26003548888888888610699565b60036000815480929190610fc590612cf5565b919050555050505050505050565b833373ffffffffffffffffffffffffffffffffffffffff1660018281548110610fff57610ffe612d9c565b5b906000526020600020906003020160020160029054906101000a900473ffffffffffffffffffffffffffffffffffffffff1673ffffffffffffffffffffffffffffffffffffffff1614611087576040517f08c379a000000000000000000000000000000000000000000000000000000000815260040161107e90612889565b60405180910390fd5b85856000600460008381526020019081526020016000208054905067ffffffffffffffff8111156110bb576110ba612dcb565b5b6040519080825280602002602001820160405280156110e95781602001602082028036833780820191505090505b50905060005b600460008481526020019081526020016000208054905081101561128357600060046000858152602001908152602001600020828154811061113457611133612d9c565b5b90600052602060002090602091828204019190069054906101000a900460ff1660ff16905060001515600660008773ffffffffffffffffffffffffffffffffffffffff1673ffffffffffffffffffffffffffffffffffffffff168152602001908152602001600020600083815260200190815260200160002060000160009054906101000a900460ff16151514801561123057506000600660008773ffffffffffffffffffffffffffffffffffffffff1673ffffffffffffffffffffffffffffffffffffffff168152602001908152602001600020600083815260200190815260200160002060000160019054906101000a900460ff1660ff16115b61126f576040517f08c379a000000000000000000000000000000000000000000000000000000000815260040161126690612849565b60405180910390fd5b50808061127b90612cf5565b9150506110ef565b5088886000600660008473ffffffffffffffffffffffffffffffffffffffff1673ffffffffffffffffffffffffffffffffffffffff16815260200190815260200160002060008381526020019081526020016000206040518060600160405290816000820160009054906101000a900460ff161515151581526020016000820160019054906101000a900460ff1660ff1660ff168152602001600182015481525050905080600001518061133e57506000816020015160ff16145b61137d576040517f08c379a0000000000000000000000000000000000000000000000000000000008152600401611374906128a9565b60405180910390fd5b600260019054906101000a900460ff1660ff168960ff1611806113b45750600260009054906101000a900460ff1660ff168960ff16105b6113f3576040517f08c379a00000000000000000000000000000000000000000000000000000000081526004016113ea906128e9565b60405180910390fd5b60405180606001604052808b151581526020018a60ff16815260200189815250600660008e73ffffffffffffffffffffffffffffffffffffffff1673ffffffffffffffffffffffffffffffffffffffff16815260200190815260200160002060008d815260200190815260200160002060008201518160000160006101000a81548160ff02191690831515021790555060208201518160000160016101000a81548160ff021916908360ff16021790555060408201518160010155905050896114f3576114f28c60018d815481106114ce576114cd612d9c565b5b906000526020600020906003020160020160009054906101000a900460ff16611d88565b5b505050505050505050505050565b600080606080606080600061151588611de5565b67ffffffffffffffff81111561152e5761152d612dcb565b5b60405190808252806020026020018201604052801561155c5781602001602082028036833780820191505090505b509050600061156a89611de5565b67ffffffffffffffff81111561158357611582612dcb565b5b6040519080825280602002602001820160405280156115b15781602001602082028036833780820191505090505b50905060006115bf8a611de5565b67ffffffffffffffff8111156115d8576115d7612dcb565b5b6040519080825280602002602001820160405280156116065781602001602082028036833780820191505090505b50905060006116148b611de5565b67ffffffffffffffff81111561162d5761162c612dcb565b5b60405190808252806020026020018201604052801561165b5781602001602082028036833780820191505090505b5090506000805b61166b8d611de5565b82101561195a576000600660008f73ffffffffffffffffffffffffffffffffffffffff1673ffffffffffffffffffffffffffffffffffffffff1681526020019081526020016000206000600184815481106116c9576116c8612d9c565b5b906000526020600020906003020160000154815260200190815260200160002060000160019054906101000a900460ff1660ff161115611947576001818154811061171757611716612d9c565b5b90600052602060002090600302016000015483838151811061173c5761173b612d9c565b5b602002602001018181525050600660008e73ffffffffffffffffffffffffffffffffffffffff1673ffffffffffffffffffffffffffffffffffffffff16815260200190815260200160002060006001838154811061179d5761179c612d9c565b5b906000526020600020906003020160000154815260200190815260200160002060000160019054906101000a900460ff168583815181106117e1576117e0612d9c565b5b602002602001019060ff16908160ff1681525050600660008e73ffffffffffffffffffffffffffffffffffffffff1673ffffffffffffffffffffffffffffffffffffffff16815260200190815260200160002060006001838154811061184a57611849612d9c565b5b90600052602060002090600302016000015481526020019081526020016000206001015484838151811061188157611880612d9c565b5b602002602001018181525050600660008e73ffffffffffffffffffffffffffffffffffffffff1673ffffffffffffffffffffffffffffffffffffffff1681526020019081526020016000206000600183815481106118e2576118e1612d9c565b5b906000526020600020906003020160000154815260200190815260200160002060000160009054906101000a900460ff1686838151811061192657611925612d9c565b5b602002602001019015159081151581525050818061194390612cf5565b9250505b808061195290612cf5565b915050611662565b8c600560008f73ffffffffffffffffffffffffffffffffffffffff1673ffffffffffffffffffffffffffffffffffffffff16815260200190815260200160002054848888889b509b509b509b509b509b5050505050505091939550919395565b6119c2611bfd565b73ffffffffffffffffffffffffffffffffffffffff166119e0610915565b73ffffffffffffffffffffffffffffffffffffffff1614611a36576040517f08c379a0000000000000000000000000000000000000000000000000000000008152600401611a2d90612909565b60405180910390fd5b80600260016101000a81548160ff021916908360ff16021790555050565b611a5c611bfd565b73ffffffffffffffffffffffffffffffffffffffff16611a7a610915565b73ffffffffffffffffffffffffffffffffffffffff1614611ad0576040517f08c379a0000000000000000000000000000000000000000000000000000000008152600401611ac790612909565b60405180910390fd5b600073ffffffffffffffffffffffffffffffffffffffff168173ffffffffffffffffffffffffffffffffffffffff161415611b40576040517f08c379a0000000000000000000000000000000000000000000000000000000008152600401611b3790612869565b60405180910390fd5b8073ffffffffffffffffffffffffffffffffffffffff1660008054906101000a900473ffffffffffffffffffffffffffffffffffffffff1673ffffffffffffffffffffffffffffffffffffffff167f8be0079c531659141344cd1fd0a4f28419497f9722a3daafe3b4186f6b6457e060405160405180910390a3806000806101000a81548173ffffffffffffffffffffffffffffffffffffffff021916908373ffffffffffffffffffffffffffffffffffffffff16021790555050565b600033905090565b81816000600660008473ffffffffffffffffffffffffffffffffffffffff1673ffffffffffffffffffffffffffffffffffffffff16815260200190815260200160002060008381526020019081526020016000206040518060600160405290816000820160009054906101000a900460ff161515151581526020016000820160019054906101000a900460ff1660ff1660ff1681526020016001820154815250509050806000015180611cbf57506000816020015160ff16145b611cfe576040517f08c379a0000000000000000000000000000000000000000000000000000000008152600401611cf5906128a9565b60405180910390fd5b600660008673ffffffffffffffffffffffffffffffffffffffff1673ffffffffffffffffffffffffffffffffffffffff1681526020019081526020016000206000858152602001908152602001600020600080820160006101000a81549060ff02191690556000820160016101000a81549060ff0219169055600182016000905550505050505050565b8060ff16600560008473ffffffffffffffffffffffffffffffffffffffff1673ffffffffffffffffffffffffffffffffffffffff1681526020019081526020016000206000828254611dda9190612b71565b925050819055505050565b6000806000905060005b600180549050811015611eaf576000600660008673ffffffffffffffffffffffffffffffffffffffff1673ffffffffffffffffffffffffffffffffffffffff168152602001908152602001600020600060018481548110611e5357611e52612d9c565b5b906000526020600020906003020160000154815260200190815260200160002060000160019054906101000a900460ff1660ff161115611e9c578180611e9890612cf5565b9250505b8080611ea790612cf5565b915050611def565b5080915050919050565b828054611ec590612c92565b90600052602060002090601f016020900481019282611ee75760008555611f2e565b82601f10611f0057805160ff1916838001178555611f2e565b82800160010185558215611f2e579182015b82811115611f2d578251825591602001919060010190611f12565b5b509050611f3b9190611fe6565b5090565b82805482825590600052602060002090601f01602090048101928215611fd55791602002820160005b83821115611fa657835183826101000a81548160ff021916908360ff1602179055509260200192600101602081600001049283019260010302611f68565b8015611fd35782816101000a81549060ff0219169055600101602081600001049283019260010302611fa6565b505b509050611fe29190611fe6565b5090565b5b80821115611fff576000816000905550600101611fe7565b5090565b600061201661201184612a4d565b612a28565b9050808382526020820190508285602086028201111561203957612038612dff565b5b60005b85811015612069578161204f8882612150565b84526020840193506020830192505060018101905061203c565b5050509392505050565b600061208661208184612a79565b612a28565b9050828152602081018484840111156120a2576120a1612e04565b5b6120ad848285612c50565b509392505050565b6000813590506120c481612fdb565b92915050565b600082601f8301126120df576120de612dfa565b5b81356120ef848260208601612003565b91505092915050565b60008135905061210781612ff2565b92915050565b600082601f83011261212257612121612dfa565b5b8135612132848260208601612073565b91505092915050565b60008135905061214a81613009565b92915050565b60008135905061215f81613020565b92915050565b60006020828403121561217b5761217a612e0e565b5b6000612189848285016120b5565b91505092915050565b600080604083850312156121a9576121a8612e0e565b5b60006121b7858286016120b5565b92505060206121c88582860161213b565b9150509250929050565b600080600080600060a086880312156121ee576121ed612e0e565b5b60006121fc888289016120b5565b955050602061220d8882890161213b565b945050604061221e888289016120f8565b935050606061222f88828901612150565b92505060806122408882890161213b565b9150509295509295909350565b600080600080600060a0868803121561226957612268612e0e565b5b600086013567ffffffffffffffff81111561228757612286612e09565b5b6122938882890161210d565b95505060206122a488828901612150565b945050604086013567ffffffffffffffff8111156122c5576122c4612e09565b5b6122d1888289016120ca565b93505060606122e2888289016120f8565b92505060806122f3888289016120b5565b9150509295509295909350565b60006020828403121561231657612315612e0e565b5b60006123248482850161213b565b91505092915050565b60008060008060008060c0878903121561234a57612349612e0e565b5b600061235889828a0161213b565b965050602087013567ffffffffffffffff81111561237957612378612e09565b5b61238589828a0161210d565b955050604061239689828a01612150565b945050606087013567ffffffffffffffff8111156123b7576123b6612e09565b5b6123c389828a016120ca565b93505060806123d489828a016120f8565b92505060a06123e589828a016120b5565b9150509295509295509295565b6000806040838503121561240957612408612e0e565b5b60006124178582860161213b565b92505060206124288582860161213b565b9150509250929050565b60006020828403121561244857612447612e0e565b5b600061245684828501612150565b91505092915050565b600061246b83836125d0565b60208301905092915050565b6000612483838361271c565b60208301905092915050565b600061249b838361273a565b60208301905092915050565b6124b081612bfb565b82525050565b60006124c182612ada565b6124cb8185612b2d565b93506124d683612aaa565b8060005b838110156125075781516124ee888261245f565b97506124f983612b06565b9250506001810190506124da565b5085935050505092915050565b600061251f82612ae5565b6125298185612b3e565b935061253483612aba565b8060005b8381101561256557815161254c8882612477565b975061255783612b13565b925050600181019050612538565b5085935050505092915050565b600061257d82612af0565b6125878185612b4f565b935061259283612aca565b8060005b838110156125c35781516125aa888261248f565b97506125b583612b20565b925050600181019050612596565b5085935050505092915050565b6125d981612c0d565b82525050565b6125e881612c0d565b82525050565b60006125f982612afb565b6126038185612b60565b9350612613818560208601612c5f565b61261c81612e13565b840191505092915050565b6000612634602d83612b60565b915061263f82612e24565b604082019050919050565b6000612657602683612b60565b915061266282612e73565b604082019050919050565b600061267a603083612b60565b915061268582612ec2565b604082019050919050565b600061269d602083612b60565b91506126a882612f11565b602082019050919050565b60006126c0601883612b60565b91506126cb82612f3a565b602082019050919050565b60006126e3603183612b60565b91506126ee82612f63565b604082019050919050565b6000612706602083612b60565b915061271182612fb2565b602082019050919050565b61272581612c39565b82525050565b61273481612c39565b82525050565b61274381612c43565b82525050565b61275281612c43565b82525050565b600060208201905061276d60008301846124a7565b92915050565b600060c08201905061278860008301896124a7565b612795602083018861272b565b81810360408301526127a78187612514565b905081810360608301526127bb81866124b6565b905081810360808301526127cf8185612572565b905081810360a08301526127e38184612514565b9050979650505050505050565b600060608201905061280560008301866125df565b6128126020830185612749565b61281f604083018461272b565b949350505050565b6000602082019050818103600083015261284181846125ee565b905092915050565b6000602082019050818103600083015261286281612627565b9050919050565b600060208201905081810360008301526128828161264a565b9050919050565b600060208201905081810360008301526128a28161266d565b9050919050565b600060208201905081810360008301526128c281612690565b9050919050565b600060208201905081810360008301526128e2816126b3565b9050919050565b60006020820190508181036000830152612902816126d6565b9050919050565b60006020820190508181036000830152612922816126f9565b9050919050565b600060208201905061293e600083018461272b565b92915050565b600060c082019050612959600083018961272b565b818103602083015261296b81886125ee565b905061297a6040830187612749565b818103606083015261298c8186612572565b905061299b60808301856125df565b6129a860a08301846124a7565b979650505050505050565b600060a0820190506129c8600083018861272b565b81810360208301526129da81876125ee565b90506129e96040830186612749565b6129f660608301856125df565b612a0360808301846124a7565b9695505050505050565b6000602082019050612a226000830184612749565b92915050565b6000612a32612a43565b9050612a3e8282612cc4565b919050565b6000604051905090565b600067ffffffffffffffff821115612a6857612a67612dcb565b5b602082029050602081019050919050565b600067ffffffffffffffff821115612a9457612a93612dcb565b5b612a9d82612e13565b9050602081019050919050565b6000819050602082019050919050565b6000819050602082019050919050565b6000819050602082019050919050565b600081519050919050565b600081519050919050565b600081519050919050565b600081519050919050565b6000602082019050919050565b6000602082019050919050565b6000602082019050919050565b600082825260208201905092915050565b600082825260208201905092915050565b600082825260208201905092915050565b600082825260208201905092915050565b6000612b7c82612c39565b9150612b8783612c39565b9250827fffffffffffffffffffffffffffffffffffffffffffffffffffffffffffffffff03821115612bbc57612bbb612d3e565b5b828201905092915050565b6000612bd282612c39565b9150612bdd83612c39565b925082821015612bf057612bef612d3e565b5b828203905092915050565b6000612c0682612c19565b9050919050565b60008115159050919050565b600073ffffffffffffffffffffffffffffffffffffffff82169050919050565b6000819050919050565b600060ff82169050919050565b82818337600083830152505050565b60005b83811015612c7d578082015181840152602081019050612c62565b83811115612c8c576000848401525b50505050565b60006002820490506001821680612caa57607f821691505b60208210811415612cbe57612cbd612d6d565b5b50919050565b612ccd82612e13565b810181811067ffffffffffffffff82111715612cec57612ceb612dcb565b5b80604052505050565b6000612d0082612c39565b91507fffffffffffffffffffffffffffffffffffffffffffffffffffffffffffffffff821415612d3357612d32612d3e565b5b600182019050919050565b7f4e487b7100000000000000000000000000000000000000000000000000000000600052601160045260246000fd5b7f4e487b7100000000000000000000000000000000000000000000000000000000600052602260045260246000fd5b7f4e487b7100000000000000000000000000000000000000000000000000000000600052603260045260246000fd5b7f4e487b7100000000000000000000000000000000000000000000000000000000600052604160045260246000fd5b600080fd5b600080fd5b600080fd5b600080fd5b600080fd5b6000601f19601f8301169050919050565b7f456c20616c756d6e6f206e6f207469656e65206c617320636f7272656c61746960008201527f766173206170726f626164617300000000000000000000000000000000000000602082015250565b7f4f776e61626c653a206e6577206f776e657220697320746865207a65726f206160008201527f6464726573730000000000000000000000000000000000000000000000000000602082015250565b7f536f6c6f207075656465206170726f62617220616c756d6e6f7320656c20707260008201527f6f6665736f722064656c20637572736f00000000000000000000000000000000602082015250565b7f456c20616c756d6e6f207961206170726f626f2065737461206d617465726961600082015250565b7f4c6120636f7272656c6174697661206e6f206578697374650000000000000000600082015250565b7f4c61206e6f7461206e6f20736520656e6375656e74726120656e747265206c6160008201527f73206e6f74617320706f7369626c657360000000000000000000000000000000602082015250565b7f4f776e61626c653a2063616c6c6572206973206e6f7420746865206f776e6572600082015250565b612fe481612bfb565b8114612fef57600080fd5b50565b612ffb81612c0d565b811461300657600080fd5b50565b61301281612c39565b811461301d57600080fd5b50565b61302981612c43565b811461303457600080fd5b5056fea2646970667358221220d171ce92f121f34e022679f2479384b5c678c45d24389208cdb22fa476255c1964736f6c63430008060033",
  "immutableReferences": {},
  "source": "pragma solidity ^0.8.0;\n\nimport \"@openzeppelin/contracts/access/Ownable.sol\";\nimport \"./CreditoToken.sol\";\n\ncontract CursosFactory is Ownable, CreditoToken {\n\n    struct Curso {\n        uint id;\n        string nombre;\n        uint8 creditos;\n        bool activo;\n        address profesor;\n    }\n    \n    struct Aprobacion {\n        bool soloCursada;\n        uint8 nota;\n        uint fechaDeAprobacion;\n    }\n    \n    Curso[] public cursos;\n    uint8 notaMaxima=10;\n    uint8 notaMinima=4;\n    uint public cantidadCursos = 0;\n    mapping(uint => uint8[]) public correlativasCurso;\n    mapping(address => uint) public creditos;\n    mapping(address => mapping(uint => Aprobacion)) public aprobados;\n    \n    modifier onlyProfessor(uint _cursoId) {\n        require(cursos[_cursoId].profesor == msg.sender, \"Solo puede aprobar alumnos el profesor del curso\");\n        _;\n    }\n    \n    modifier tieneCorrelativas(address _alumno, uint _cursoId) {\n        uint[] memory correlativas = new uint[](correlativasCurso[_cursoId].length);\n        for(uint i=0; i < correlativasCurso[_cursoId].length; i++){\n            uint correlativaId = correlativasCurso[_cursoId][i];\n            require(aprobados[_alumno][correlativaId].soloCursada == false && aprobados[_alumno][correlativaId].nota > 0, \"El alumno no tiene las correlativas aprobadas\");\n        }\n        _;\n    }\n    \n    modifier materiaNoAprobada(address _alumno, uint _cursoId) {\n        Aprobacion memory aprobacion = aprobados[_alumno][_cursoId];\n        require(aprobacion.soloCursada || aprobacion.nota == 0, \"El alumno ya aprobo esta materia\");\n        _;\n    }\n    \n    modifier correlativasExisten(uint8[] memory correlativas) {\n        for(uint i=0; i < correlativas.length; i++){\n            require(correlativas[i] <= cursos.length , \"La correlativa no existe\");\n        }\n        _;\n    }\n    \n    \n    function crearCurso(string memory _nombre, uint8 _creditos, uint8[] memory _correlativas, bool _activo, address _profesor) public onlyOwner correlativasExisten(_correlativas){\n        cursos.push();\n        Curso storage curso = cursos[cantidadCursos];\n        curso.id = cantidadCursos;\n        modificarCurso(cantidadCursos, _nombre, _creditos, _correlativas, _activo, _profesor);\n        cantidadCursos++;\n    }\n    \n    \n    function modificarCurso(uint _cursoId, string memory _nombre, uint8 _creditos, uint8[] memory _correlativas, bool _activo, address _profesor) public onlyOwner {\n        Curso storage curso = cursos[_cursoId];\n        curso.nombre = _nombre;\n        curso.creditos = _creditos;\n        curso.activo = _activo;\n        curso.profesor = _profesor;\n        correlativasCurso[_cursoId] = _correlativas;\n    }\n    \n    function setearNotaMaxima(uint8 _notaMaxima) public onlyOwner{\n        notaMaxima = _notaMaxima;\n    }\n    \n    function setearNotaMinima(uint8 _notaMinima) public onlyOwner{\n        notaMinima = _notaMinima;\n    }\n    \n    function aprobarAlumno(address _alumno, uint _cursoId, bool _soloCursada, uint8 _nota, uint _fechaDeAprobacion) public onlyProfessor(_cursoId) tieneCorrelativas( _alumno, _cursoId) materiaNoAprobada(_alumno, _cursoId){\n        require(_nota > notaMinima || _nota < notaMaxima, \"La nota no se encuentra entre las notas posibles`\");\n        aprobados[_alumno][_cursoId] = Aprobacion(_soloCursada, _nota, _fechaDeAprobacion);\n        if (!_soloCursada) {\n            _transfer(_alumno, cursos[_cursoId].creditos);\n        }\n        \n    }\n    \n    function _removerAlumnoDelCurso(address _alumno, uint _cursoId) private materiaNoAprobada(_alumno, _cursoId) {\n        delete aprobados[_alumno][_cursoId];\n    }\n    \n    function removerAlumnoDelCurso(address _alumno, uint _cursoId) public onlyProfessor(_cursoId){\n        _removerAlumnoDelCurso(_alumno, _cursoId);\n    }\n    \n    function removerCursadasVencidas(address _alumno) public {\n        for(uint i=0; i < cursos.length; i++){\n            Aprobacion storage aprobacion = aprobados[_alumno][cursos[i].id];\n            if (aprobacion.fechaDeAprobacion < block.timestamp - 548 days && aprobacion.soloCursada ){\n                _removerAlumnoDelCurso(_alumno, cursos[i].id);\n            }\n        }\n    }\n\n    function getCurso(uint _cursoId) public view returns (uint, string memory, uint8, uint8[] memory, bool, address) {\n        Curso memory curso = cursos[_cursoId];\n        uint8[] memory correlativas = new uint8[](correlativasCurso[_cursoId].length);\n        correlativas = correlativasCurso[_cursoId];\n        return (curso.id, curso.nombre, curso.creditos, correlativas, curso.activo, curso.profesor);\n    }\n    \n    function getAlumno(address _alumno) public view returns (address, uint,uint[] memory, bool[] memory, uint8[] memory, uint[] memory){\n        bool[] memory soloCursadas = new bool[](_getCantidadAprobaciones(_alumno));\n        uint8[] memory notas = new uint8[](_getCantidadAprobaciones(_alumno));\n        uint[] memory fechas = new uint[](_getCantidadAprobaciones(_alumno));\n        uint[] memory cursosId = new uint[](_getCantidadAprobaciones(_alumno));\n        uint j = 0;\n        uint i = 0;\n        while(j < _getCantidadAprobaciones(_alumno)) {\n            if (aprobados[_alumno][cursos[i].id].nota > 0){\n                cursosId[j] = cursos[i].id;\n                notas[j] = aprobados[_alumno][cursos[i].id].nota;\n                fechas[j] = aprobados[_alumno][cursos[i].id].fechaDeAprobacion;\n                soloCursadas[j] = aprobados[_alumno][cursos[i].id].soloCursada;\n                j++;\n            }\n            i++;\n        }\n        return (_alumno, creditos[_alumno], cursosId, soloCursadas, notas, fechas);\n    }\n    \n    function _getCantidadAprobaciones(address _alumno) private view returns (uint) {\n        uint j = 0;\n         for(uint i=0; i < cursos.length; i++) {\n           if (aprobados[_alumno][cursos[i].id].nota > 0){\n               j++;\n           }\n        }\n        return j;\n    }\n    \n    function balanceOf(address _owner) override external view returns (uint256 _balance){\n        return creditos[_owner];\n    }\n    \n    function _transfer(address _owner, uint8 _amount) private {\n        creditos[_owner] += _amount;\n    }\n    \n}",
  "sourcePath": "/home/payas/Desktop/Facultad/Robots/TP2/tp2/contracts/CursosFactory.sol",
  "compiler": {
    "name": "solc",
    "version": "0.8.6+commit.11564f7e.Emscripten.clang"
  },
  "schemaVersion": "3.4.1",
  "updatedAt": "2021-06-28T22:50:15.959Z",
  "networkType": "ethereum",
  "devdoc": {
    "kind": "dev",
    "methods": {
      "owner()": {
        "details": "Returns the address of the current owner."
      },
      "renounceOwnership()": {
        "details": "Leaves the contract without owner. It will not be possible to call `onlyOwner` functions anymore. Can only be called by the current owner. NOTE: Renouncing ownership will leave the contract without an owner, thereby removing any functionality that is only available to the owner."
      },
      "transferOwnership(address)": {
        "details": "Transfers ownership of the contract to a new account (`newOwner`). Can only be called by the current owner."
      }
    },
    "version": 1
  },
  "userdoc": {
    "kind": "user",
    "methods": {},
    "version": 1
  }
}