{
  "contractName": "CursosFactory",
  "abi": [
    {
      "anonymous": false,
      "inputs": [
        {
          "indexed": false,
          "internalType": "address",
          "name": "alumno",
          "type": "address"
        },
        {
          "indexed": false,
          "internalType": "uint256",
          "name": "cursoId",
          "type": "uint256"
        }
      ],
      "name": "AproboMateria",
      "type": "event"
    },
    {
      "anonymous": false,
      "inputs": [
        {
          "indexed": true,
          "internalType": "address",
          "name": "previousOwner",
          "type": "address"
        },
        {
          "indexed": true,
          "internalType": "address",
          "name": "newOwner",
          "type": "address"
        }
      ],
      "name": "OwnershipTransferred",
      "type": "event"
    },
    {
      "inputs": [
        {
          "internalType": "address",
          "name": "",
          "type": "address"
        },
        {
          "internalType": "uint256",
          "name": "",
          "type": "uint256"
        }
      ],
      "name": "aprobados",
      "outputs": [
        {
          "internalType": "bool",
          "name": "soloCursada",
          "type": "bool"
        },
        {
          "internalType": "uint8",
          "name": "nota",
          "type": "uint8"
        },
        {
          "internalType": "uint256",
          "name": "fechaDeAprobacion",
          "type": "uint256"
        }
      ],
      "stateMutability": "view",
      "type": "function",
      "constant": true
    },
    {
      "inputs": [],
      "name": "cantidadCursos",
      "outputs": [
        {
          "internalType": "uint256",
          "name": "",
          "type": "uint256"
        }
      ],
      "stateMutability": "view",
      "type": "function",
      "constant": true
    },
    {
      "inputs": [
        {
          "internalType": "address",
          "name": "",
          "type": "address"
        }
      ],
      "name": "creditos",
      "outputs": [
        {
          "internalType": "uint256",
          "name": "",
          "type": "uint256"
        }
      ],
      "stateMutability": "view",
      "type": "function",
      "constant": true
    },
    {
      "inputs": [
        {
          "internalType": "uint256",
          "name": "",
          "type": "uint256"
        }
      ],
      "name": "cursos",
      "outputs": [
        {
          "internalType": "uint256",
          "name": "id",
          "type": "uint256"
        },
        {
          "internalType": "string",
          "name": "nombre",
          "type": "string"
        },
        {
          "internalType": "uint8",
          "name": "creditos",
          "type": "uint8"
        },
        {
          "internalType": "bool",
          "name": "activo",
          "type": "bool"
        },
        {
          "internalType": "address",
          "name": "profesor",
          "type": "address"
        }
      ],
      "stateMutability": "view",
      "type": "function",
      "constant": true
    },
    {
      "inputs": [],
      "name": "decimals",
      "outputs": [
        {
          "internalType": "uint8",
          "name": "",
          "type": "uint8"
        }
      ],
      "stateMutability": "pure",
      "type": "function",
      "constant": true
    },
    {
      "inputs": [],
      "name": "name",
      "outputs": [
        {
          "internalType": "string",
          "name": "",
          "type": "string"
        }
      ],
      "stateMutability": "pure",
      "type": "function",
      "constant": true
    },
    {
      "inputs": [],
      "name": "owner",
      "outputs": [
        {
          "internalType": "address",
          "name": "",
          "type": "address"
        }
      ],
      "stateMutability": "view",
      "type": "function",
      "constant": true
    },
    {
      "inputs": [],
      "name": "renounceOwnership",
      "outputs": [],
      "stateMutability": "nonpayable",
      "type": "function"
    },
    {
      "inputs": [],
      "name": "symbol",
      "outputs": [
        {
          "internalType": "string",
          "name": "",
          "type": "string"
        }
      ],
      "stateMutability": "pure",
      "type": "function",
      "constant": true
    },
    {
      "inputs": [
        {
          "internalType": "address",
          "name": "newOwner",
          "type": "address"
        }
      ],
      "name": "transferOwnership",
      "outputs": [],
      "stateMutability": "nonpayable",
      "type": "function"
    },
    {
      "inputs": [
        {
          "internalType": "string",
          "name": "_nombre",
          "type": "string"
        },
        {
          "internalType": "uint8",
          "name": "_creditos",
          "type": "uint8"
        },
        {
          "internalType": "uint8[]",
          "name": "_correlativas",
          "type": "uint8[]"
        },
        {
          "internalType": "bool",
          "name": "_activo",
          "type": "bool"
        },
        {
          "internalType": "address",
          "name": "_profesor",
          "type": "address"
        }
      ],
      "name": "crearCurso",
      "outputs": [],
      "stateMutability": "nonpayable",
      "type": "function"
    },
    {
      "inputs": [
        {
          "internalType": "uint256",
          "name": "_cursoId",
          "type": "uint256"
        },
        {
          "internalType": "string",
          "name": "_nombre",
          "type": "string"
        },
        {
          "internalType": "uint8",
          "name": "_creditos",
          "type": "uint8"
        },
        {
          "internalType": "uint8[]",
          "name": "_correlativas",
          "type": "uint8[]"
        },
        {
          "internalType": "bool",
          "name": "_activo",
          "type": "bool"
        },
        {
          "internalType": "address",
          "name": "_profesor",
          "type": "address"
        }
      ],
      "name": "modificarCurso",
      "outputs": [],
      "stateMutability": "nonpayable",
      "type": "function"
    },
    {
      "inputs": [
        {
          "internalType": "uint8",
          "name": "_notaMaxima",
          "type": "uint8"
        }
      ],
      "name": "setearNotaMaxima",
      "outputs": [],
      "stateMutability": "nonpayable",
      "type": "function"
    },
    {
      "inputs": [
        {
          "internalType": "uint8",
          "name": "_notaMinima",
          "type": "uint8"
        }
      ],
      "name": "setearNotaMinima",
      "outputs": [],
      "stateMutability": "nonpayable",
      "type": "function"
    },
    {
      "inputs": [
        {
          "internalType": "address",
          "name": "_alumno",
          "type": "address"
        },
        {
          "internalType": "uint256",
          "name": "_cursoId",
          "type": "uint256"
        },
        {
          "internalType": "bool",
          "name": "_soloCursada",
          "type": "bool"
        },
        {
          "internalType": "uint8",
          "name": "_nota",
          "type": "uint8"
        }
      ],
      "name": "aprobarAlumno",
      "outputs": [],
      "stateMutability": "nonpayable",
      "type": "function"
    },
    {
      "inputs": [
        {
          "internalType": "address",
          "name": "_alumno",
          "type": "address"
        },
        {
          "internalType": "uint256",
          "name": "_cursoId",
          "type": "uint256"
        }
      ],
      "name": "removerAlumnoDelCurso",
      "outputs": [],
      "stateMutability": "nonpayable",
      "type": "function"
    },
    {
      "inputs": [
        {
          "internalType": "address",
          "name": "_alumno",
          "type": "address"
        }
      ],
      "name": "removerCursadasVencidas",
      "outputs": [],
      "stateMutability": "nonpayable",
      "type": "function"
    },
    {
      "inputs": [
        {
          "internalType": "address",
          "name": "_owner",
          "type": "address"
        }
      ],
      "name": "balanceOf",
      "outputs": [
        {
          "internalType": "uint256",
          "name": "_balance",
          "type": "uint256"
        }
      ],
      "stateMutability": "view",
      "type": "function",
      "constant": true
    },
    {
      "inputs": [
        {
          "internalType": "address",
          "name": "_alumno",
          "type": "address"
        }
      ],
      "name": "getAlumno",
      "outputs": [
        {
          "internalType": "address",
          "name": "",
          "type": "address"
        },
        {
          "internalType": "uint256",
          "name": "",
          "type": "uint256"
        },
        {
          "internalType": "uint256[]",
          "name": "",
          "type": "uint256[]"
        },
        {
          "internalType": "string[]",
          "name": "",
          "type": "string[]"
        },
        {
          "components": [
            {
              "internalType": "bool",
              "name": "soloCursada",
              "type": "bool"
            },
            {
              "internalType": "uint8",
              "name": "nota",
              "type": "uint8"
            },
            {
              "internalType": "uint256",
              "name": "fechaDeAprobacion",
              "type": "uint256"
            }
          ],
          "internalType": "struct CursosFactory.Aprobacion[]",
          "name": "",
          "type": "tuple[]"
        }
      ],
      "stateMutability": "view",
      "type": "function",
      "constant": true
    },
    {
      "inputs": [],
      "name": "getCursos",
      "outputs": [
        {
          "components": [
            {
              "internalType": "uint256",
              "name": "id",
              "type": "uint256"
            },
            {
              "internalType": "string",
              "name": "nombre",
              "type": "string"
            },
            {
              "internalType": "uint8",
              "name": "creditos",
              "type": "uint8"
            },
            {
              "internalType": "bool",
              "name": "activo",
              "type": "bool"
            },
            {
              "internalType": "address",
              "name": "profesor",
              "type": "address"
            },
            {
              "internalType": "uint256[]",
              "name": "correlativas",
              "type": "uint256[]"
            }
          ],
          "internalType": "struct CursosFactory.Curso[]",
          "name": "",
          "type": "tuple[]"
        }
      ],
      "stateMutability": "view",
      "type": "function",
      "constant": true
    }
  ],
  "bytecode": "0x6080604052600a600260006101000a81548160ff021916908360ff1602179055506004600260016101000a81548160ff021916908360ff160217905550600060035534801561004d57600080fd5b50600061005e61010160201b60201c565b9050806000806101000a81548173ffffffffffffffffffffffffffffffffffffffff021916908373ffffffffffffffffffffffffffffffffffffffff1602179055508073ffffffffffffffffffffffffffffffffffffffff16600073ffffffffffffffffffffffffffffffffffffffff167f8be0079c531659141344cd1fd0a4f28419497f9722a3daafe3b4186f6b6457e060405160405180910390a350610109565b600033905090565b6132cc80620001196000396000f3fe608060405234801561001057600080fd5b506004361061012c5760003560e01c8063828460ee116100ad578063c94bd14011610071578063c94bd14014610325578063e64ecf4714610341578063e670f97e14610375578063f2fde38b14610391578063fdbdae10146103ad5761012c565b8063828460ee1461027d5780638da5cb5b1461029957806395d89b41146102b7578063bd0aa286146102d5578063c51c4bf6146102f15761012c565b8063313ce567116100f4578063313ce567146101d757806370a08231146101f5578063715018a61461022557806373452f471461022f57806381c2b05f1461024b5761012c565b806306fdde03146101315780630dac66bd1461014f5780630ef0b7351461017f57806310118b3c1461019d578063173b04ca146101bb575b600080fd5b6101396103c9565b60405161014691906129f7565b60405180910390f35b6101696004803603810190610164919061211c565b610406565b6040516101769190612b19565b60405180910390f35b61018761041e565b6040516101949190612b19565b60405180910390f35b6101a5610424565b6040516101b2919061299e565b60405180910390f35b6101d560048036038101906101d09190612395565b610605565b005b6101df61069f565b6040516101ec9190612b8e565b60405180910390f35b61020f600480360381019061020a919061211c565b6106a4565b60405161021c9190612b19565b60405180910390f35b61022d6106ed565b005b610249600480360381019061024491906122d0565b610827565b005b61026560048036038101906102609190612149565b6109ea565b604051610274939291906129c0565b60405180910390f35b61029760048036038101906102929190612149565b610a3b565b005b6102a1610c73565b6040516102ae91906128f2565b60405180910390f35b6102bf610c9c565b6040516102cc91906129f7565b60405180910390f35b6102ef60048036038101906102ea919061211c565b610cd9565b005b61030b600480360381019061030691906122a3565b610ed3565b60405161031c959493929190612b34565b60405180910390f35b61033f600480360381019061033a91906121f0565b610fdb565b005b61035b6004803603810190610356919061211c565b61115e565b60405161036c959493929190612936565b60405180910390f35b61038f600480360381019061038a9190612395565b61158f565b005b6103ab60048036038101906103a6919061211c565b611629565b005b6103c760048036038101906103c29190612189565b6117d2565b005b60606040518060400160405280600b81526020017f46495542412d544f4b454e000000000000000000000000000000000000000000815250905090565b60046020528060005260406000206000915090505481565b60035481565b60606001805480602002602001604051908101604052809291908181526020016000905b828210156105fc57838290600052602060002090600402016040518060c00160405290816000820154815260200160018201805461048590612ec8565b80601f01602080910402602001604051908101604052809291908181526020018280546104b190612ec8565b80156104fe5780601f106104d3576101008083540402835291602001916104fe565b820191906000526020600020905b8154815290600101906020018083116104e157829003601f168201915b505050505081526020016002820160009054906101000a900460ff1660ff1660ff1681526020016002820160019054906101000a900460ff161515151581526020016002820160029054906101000a900473ffffffffffffffffffffffffffffffffffffffff1673ffffffffffffffffffffffffffffffffffffffff1673ffffffffffffffffffffffffffffffffffffffff168152602001600382018054806020026020016040519081016040528092919081815260200182805480156105e457602002820191906000526020600020905b8154815260200190600101908083116105d0575b50505050508152505081526020019060010190610448565b50505050905090565b61060d611d66565b73ffffffffffffffffffffffffffffffffffffffff1661062b610c73565b73ffffffffffffffffffffffffffffffffffffffff1614610681576040517f08c379a000000000000000000000000000000000000000000000000000000000815260040161067890612af9565b60405180910390fd5b80600260006101000a81548160ff021916908360ff16021790555050565b600090565b6000600460008373ffffffffffffffffffffffffffffffffffffffff1673ffffffffffffffffffffffffffffffffffffffff168152602001908152602001600020549050919050565b6106f5611d66565b73ffffffffffffffffffffffffffffffffffffffff16610713610c73565b73ffffffffffffffffffffffffffffffffffffffff1614610769576040517f08c379a000000000000000000000000000000000000000000000000000000000815260040161076090612af9565b60405180910390fd5b600073ffffffffffffffffffffffffffffffffffffffff1660008054906101000a900473ffffffffffffffffffffffffffffffffffffffff1673ffffffffffffffffffffffffffffffffffffffff167f8be0079c531659141344cd1fd0a4f28419497f9722a3daafe3b4186f6b6457e060405160405180910390a360008060006101000a81548173ffffffffffffffffffffffffffffffffffffffff021916908373ffffffffffffffffffffffffffffffffffffffff160217905550565b61082f611d66565b73ffffffffffffffffffffffffffffffffffffffff1661084d610c73565b73ffffffffffffffffffffffffffffffffffffffff16146108a3576040517f08c379a000000000000000000000000000000000000000000000000000000000815260040161089a90612af9565b60405180910390fd5b8580600180549050116108eb576040517f08c379a00000000000000000000000000000000000000000000000000000000081526004016108e290612a59565b60405180910390fd5b60006001888154811061090157610900612fd2565b5b9060005260206000209060040201905086816001019080519060200190610929929190611e9f565b50858160020160006101000a81548160ff021916908360ff160217905550838160020160016101000a81548160ff021916908315150217905550828160020160026101000a81548173ffffffffffffffffffffffffffffffffffffffff021916908373ffffffffffffffffffffffffffffffffffffffff16021790555084600189815481106109bb576109ba612fd2565b5b906000526020600020906004020160030190805190602001906109df929190611f25565b505050505050505050565b6005602052816000526040600020602052806000526040600020600091509150508060000160009054906101000a900460ff16908060000160019054906101000a900460ff16908060010154905083565b803373ffffffffffffffffffffffffffffffffffffffff1660018281548110610a6757610a66612fd2565b5b906000526020600020906004020160020160029054906101000a900473ffffffffffffffffffffffffffffffffffffffff1673ffffffffffffffffffffffffffffffffffffffff1614610aef576040517f08c379a0000000000000000000000000000000000000000000000000000000008152600401610ae690612a79565b60405180910390fd5b82826000600560008473ffffffffffffffffffffffffffffffffffffffff1673ffffffffffffffffffffffffffffffffffffffff16815260200190815260200160002060008381526020019081526020016000206040518060600160405290816000820160009054906101000a900460ff161515151581526020016000820160019054906101000a900460ff1660ff1660ff1681526020016001820154815250509050806000015180610ba957506000816020015160ff16145b610be8576040517f08c379a0000000000000000000000000000000000000000000000000000000008152600401610bdf90612a99565b60405180910390fd5b600560008773ffffffffffffffffffffffffffffffffffffffff1673ffffffffffffffffffffffffffffffffffffffff1681526020019081526020016000206000868152602001908152602001600020600080820160006101000a81549060ff02191690556000820160016101000a81549060ff021916905560018201600090555050505050505050565b60008060009054906101000a900473ffffffffffffffffffffffffffffffffffffffff16905090565b60606040518060400160405280600381526020017f4655430000000000000000000000000000000000000000000000000000000000815250905090565b60005b600180549050811015610ecf576302d276006103e842610cfc9190612da3565b610d069190612dfd565b600560008473ffffffffffffffffffffffffffffffffffffffff1673ffffffffffffffffffffffffffffffffffffffff168152602001908152602001600020600060018481548110610d5b57610d5a612fd2565b5b906000526020600020906004020160000154815260200190815260200160002060010154108015610e0e5750600560008373ffffffffffffffffffffffffffffffffffffffff1673ffffffffffffffffffffffffffffffffffffffff168152602001908152602001600020600060018381548110610ddc57610ddb612fd2565b5b906000526020600020906004020160000154815260200190815260200160002060000160009054906101000a900460ff165b15610ebc57600560008373ffffffffffffffffffffffffffffffffffffffff1673ffffffffffffffffffffffffffffffffffffffff168152602001908152602001600020600060018381548110610e6857610e67612fd2565b5b9060005260206000209060040201600001548152602001908152602001600020600080820160006101000a81549060ff02191690556000820160016101000a81549060ff0219169055600182016000905550505b8080610ec790612f2b565b915050610cdc565b5050565b60018181548110610ee357600080fd5b9060005260206000209060040201600091509050806000015490806001018054610f0c90612ec8565b80601f0160208091040260200160405190810160405280929190818152602001828054610f3890612ec8565b8015610f855780601f10610f5a57610100808354040283529160200191610f85565b820191906000526020600020905b815481529060010190602001808311610f6857829003601f168201915b5050505050908060020160009054906101000a900460ff16908060020160019054906101000a900460ff16908060020160029054906101000a900473ffffffffffffffffffffffffffffffffffffffff16905085565b610fe3611d66565b73ffffffffffffffffffffffffffffffffffffffff16611001610c73565b73ffffffffffffffffffffffffffffffffffffffff1614611057576040517f08c379a000000000000000000000000000000000000000000000000000000000815260040161104e90612af9565b60405180910390fd5b8260005b81518110156110dc5760018054905082828151811061107d5761107c612fd2565b5b602002602001015160ff1611156110c9576040517f08c379a00000000000000000000000000000000000000000000000000000000081526004016110c090612ab9565b60405180910390fd5b80806110d490612f2b565b91505061105b565b506001808160018154018082558091505003906000526020600020905050600060016003548154811061111257611111612fd2565b5b90600052602060002090600402019050600354816000018190555061113d6003548888888888610827565b6003600081548092919061115090612f2b565b919050555050505050505050565b6000806060806060600061117187611d6e565b67ffffffffffffffff81111561118a57611189613001565b5b6040519080825280602002602001820160405280156111c357816020015b6111b0611f77565b8152602001906001900390816111a85790505b50905060006111d188611d6e565b67ffffffffffffffff8111156111ea576111e9613001565b5b6040519080825280602002602001820160405280156112185781602001602082028036833780820191505090505b509050600061122689611d6e565b67ffffffffffffffff81111561123f5761123e613001565b5b60405190808252806020026020018201604052801561127257816020015b606081526020019060019003908161125d5790505b5090506000805b6112828b611d6e565b821015611533576000600560008d73ffffffffffffffffffffffffffffffffffffffff1673ffffffffffffffffffffffffffffffffffffffff1681526020019081526020016000206000600184815481106112e0576112df612fd2565b5b906000526020600020906004020160000154815260200190815260200160002060000160019054906101000a900460ff1660ff161115611520576000600560008d73ffffffffffffffffffffffffffffffffffffffff1673ffffffffffffffffffffffffffffffffffffffff16815260200190815260200160002060006001848154811061137157611370612fd2565b5b90600052602060002090600402016000015481526020019081526020016000206040518060600160405290816000820160009054906101000a900460ff161515151581526020016000820160019054906101000a900460ff1660ff1660ff1681526020016001820154815250509050600182815481106113f4576113f3612fd2565b5b90600052602060002090600402016000015485848151811061141957611418612fd2565b5b6020026020010181815250506001828154811061143957611438612fd2565b5b9060005260206000209060040201600101805461145590612ec8565b80601f016020809104026020016040519081016040528092919081815260200182805461148190612ec8565b80156114ce5780601f106114a3576101008083540402835291602001916114ce565b820191906000526020600020905b8154815290600101906020018083116114b157829003601f168201915b50505050508484815181106114e6576114e5612fd2565b5b60200260200101819052508086848151811061150557611504612fd2565b5b6020026020010181905250828061151b90612f2b565b935050505b808061152b90612f2b565b915050611279565b8a600460008d73ffffffffffffffffffffffffffffffffffffffff1673ffffffffffffffffffffffffffffffffffffffff1681526020019081526020016000205485858899509950995099509950505050505091939590929450565b611597611d66565b73ffffffffffffffffffffffffffffffffffffffff166115b5610c73565b73ffffffffffffffffffffffffffffffffffffffff161461160b576040517f08c379a000000000000000000000000000000000000000000000000000000000815260040161160290612af9565b60405180910390fd5b80600260016101000a81548160ff021916908360ff16021790555050565b611631611d66565b73ffffffffffffffffffffffffffffffffffffffff1661164f610c73565b73ffffffffffffffffffffffffffffffffffffffff16146116a5576040517f08c379a000000000000000000000000000000000000000000000000000000000815260040161169c90612af9565b60405180910390fd5b600073ffffffffffffffffffffffffffffffffffffffff168173ffffffffffffffffffffffffffffffffffffffff161415611715576040517f08c379a000000000000000000000000000000000000000000000000000000000815260040161170c90612a39565b60405180910390fd5b8073ffffffffffffffffffffffffffffffffffffffff1660008054906101000a900473ffffffffffffffffffffffffffffffffffffffff1673ffffffffffffffffffffffffffffffffffffffff167f8be0079c531659141344cd1fd0a4f28419497f9722a3daafe3b4186f6b6457e060405160405180910390a3806000806101000a81548173ffffffffffffffffffffffffffffffffffffffff021916908373ffffffffffffffffffffffffffffffffffffffff16021790555050565b823373ffffffffffffffffffffffffffffffffffffffff16600182815481106117fe576117fd612fd2565b5b906000526020600020906004020160020160029054906101000a900473ffffffffffffffffffffffffffffffffffffffff1673ffffffffffffffffffffffffffffffffffffffff1614611886576040517f08c379a000000000000000000000000000000000000000000000000000000000815260040161187d90612a79565b60405180910390fd5b848460006001828154811061189e5761189d612fd2565b5b90600052602060002090600402016003018054905067ffffffffffffffff8111156118cc576118cb613001565b5b6040519080825280602002602001820160405280156118fa5781602001602082028036833780820191505090505b50905060005b6001838154811061191457611913612fd2565b5b906000526020600020906004020160030180549050811015611aa05760006001848154811061194657611945612fd2565b5b9060005260206000209060040201600301828154811061196957611968612fd2565b5b9060005260206000200154905060001515600560008773ffffffffffffffffffffffffffffffffffffffff1673ffffffffffffffffffffffffffffffffffffffff168152602001908152602001600020600083815260200190815260200160002060000160009054906101000a900460ff161515148015611a4d57506000600560008773ffffffffffffffffffffffffffffffffffffffff1673ffffffffffffffffffffffffffffffffffffffff168152602001908152602001600020600083815260200190815260200160002060000160019054906101000a900460ff1660ff16115b611a8c576040517f08c379a0000000000000000000000000000000000000000000000000000000008152600401611a8390612a19565b60405180910390fd5b508080611a9890612f2b565b915050611900565b5087876000600560008473ffffffffffffffffffffffffffffffffffffffff1673ffffffffffffffffffffffffffffffffffffffff16815260200190815260200160002060008381526020019081526020016000206040518060600160405290816000820160009054906101000a900460ff161515151581526020016000820160019054906101000a900460ff1660ff1660ff1681526020016001820154815250509050806000015180611b5b57506000816020015160ff16145b611b9a576040517f08c379a0000000000000000000000000000000000000000000000000000000008152600401611b9190612a99565b60405180910390fd5b600260019054906101000a900460ff1660ff168860ff1610158015611bd45750600260009054906101000a900460ff1660ff168860ff1611155b611c13576040517f08c379a0000000000000000000000000000000000000000000000000000000008152600401611c0a90612ad9565b60405180910390fd5b60405180606001604052808a151581526020018960ff1681526020016103e842611c3d9190612da3565b815250600560008d73ffffffffffffffffffffffffffffffffffffffff1673ffffffffffffffffffffffffffffffffffffffff16815260200190815260200160002060008c815260200190815260200160002060008201518160000160006101000a81548160ff02191690831515021790555060208201518160000160016101000a81548160ff021916908360ff1602179055506040820151816001015590505088611d2057611d1f8b60018c81548110611cfb57611cfa612fd2565b5b906000526020600020906004020160020160009054906101000a900460ff16611e42565b5b7f9957ff0410928872ad67e2262eb218ea52bc789aefe6ccee488dcd6f658e969e8b8b604051611d5192919061290d565b60405180910390a15050505050505050505050565b600033905090565b6000806000905060005b600180549050811015611e38576000600560008673ffffffffffffffffffffffffffffffffffffffff1673ffffffffffffffffffffffffffffffffffffffff168152602001908152602001600020600060018481548110611ddc57611ddb612fd2565b5b906000526020600020906004020160000154815260200190815260200160002060000160019054906101000a900460ff1660ff161115611e25578180611e2190612f2b565b9250505b8080611e3090612f2b565b915050611d78565b5080915050919050565b8060ff16600460008473ffffffffffffffffffffffffffffffffffffffff1673ffffffffffffffffffffffffffffffffffffffff1681526020019081526020016000206000828254611e949190612d4d565b925050819055505050565b828054611eab90612ec8565b90600052602060002090601f016020900481019282611ecd5760008555611f14565b82601f10611ee657805160ff1916838001178555611f14565b82800160010185558215611f14579182015b82811115611f13578251825591602001919060010190611ef8565b5b509050611f219190611f9d565b5090565b828054828255906000526020600020908101928215611f66579160200282015b82811115611f65578251829060ff16905591602001919060010190611f45565b5b509050611f739190611f9d565b5090565b6040518060600160405280600015158152602001600060ff168152602001600081525090565b5b80821115611fb6576000816000905550600101611f9e565b5090565b6000611fcd611fc884612bce565b612ba9565b90508083825260208201905082856020860282011115611ff057611fef613035565b5b60005b8581101561202057816120068882612107565b845260208401935060208301925050600181019050611ff3565b5050509392505050565b600061203d61203884612bfa565b612ba9565b9050828152602081018484840111156120595761205861303a565b5b612064848285612e86565b509392505050565b60008135905061207b8161323a565b92915050565b600082601f83011261209657612095613030565b5b81356120a6848260208601611fba565b91505092915050565b6000813590506120be81613251565b92915050565b600082601f8301126120d9576120d8613030565b5b81356120e984826020860161202a565b91505092915050565b60008135905061210181613268565b92915050565b6000813590506121168161327f565b92915050565b60006020828403121561213257612131613044565b5b60006121408482850161206c565b91505092915050565b600080604083850312156121605761215f613044565b5b600061216e8582860161206c565b925050602061217f858286016120f2565b9150509250929050565b600080600080608085870312156121a3576121a2613044565b5b60006121b18782880161206c565b94505060206121c2878288016120f2565b93505060406121d3878288016120af565b92505060606121e487828801612107565b91505092959194509250565b600080600080600060a0868803121561220c5761220b613044565b5b600086013567ffffffffffffffff81111561222a5761222961303f565b5b612236888289016120c4565b955050602061224788828901612107565b945050604086013567ffffffffffffffff8111156122685761226761303f565b5b61227488828901612081565b9350506060612285888289016120af565b92505060806122968882890161206c565b9150509295509295909350565b6000602082840312156122b9576122b8613044565b5b60006122c7848285016120f2565b91505092915050565b60008060008060008060c087890312156122ed576122ec613044565b5b60006122fb89828a016120f2565b965050602087013567ffffffffffffffff81111561231c5761231b61303f565b5b61232889828a016120c4565b955050604061233989828a01612107565b945050606087013567ffffffffffffffff81111561235a5761235961303f565b5b61236689828a01612081565b935050608061237789828a016120af565b92505060a061238889828a0161206c565b9150509295509295509295565b6000602082840312156123ab576123aa613044565b5b60006123b984828501612107565b91505092915050565b60006123ce838361265a565b905092915050565b60006123e283836127e4565b60608301905092915050565b60006123fa8383612826565b905092915050565b600061240e83836128b6565b60208301905092915050565b61242381612e31565b82525050565b61243281612e31565b82525050565b600061244382612c6b565b61244d8185612cd6565b93508360208202850161245f85612c2b565b8060005b8581101561249b578484038952815161247c85826123c2565b945061248783612ca2565b925060208a01995050600181019050612463565b50829750879550505050505092915050565b60006124b882612c76565b6124c28185612ce7565b93506124cd83612c3b565b8060005b838110156124fe5781516124e588826123d6565b97506124f083612caf565b9250506001810190506124d1565b5085935050505092915050565b600061251682612c81565b6125208185612cf8565b93508360208202850161253285612c4b565b8060005b8581101561256e578484038952815161254f85826123ee565b945061255a83612cbc565b925060208a01995050600181019050612536565b50829750879550505050505092915050565b600061258b82612c8c565b6125958185612d09565b93506125a083612c5b565b8060005b838110156125d15781516125b88882612402565b97506125c383612cc9565b9250506001810190506125a4565b5085935050505092915050565b60006125e982612c8c565b6125f38185612d1a565b93506125fe83612c5b565b8060005b8381101561262f5781516126168882612402565b975061262183612cc9565b925050600181019050612602565b5085935050505092915050565b61264581612e43565b82525050565b61265481612e43565b82525050565b600061266582612c97565b61266f8185612d2b565b935061267f818560208601612e95565b61268881613049565b840191505092915050565b600061269e82612c97565b6126a88185612d3c565b93506126b8818560208601612e95565b6126c181613049565b840191505092915050565b60006126d9602d83612d3c565b91506126e48261305a565b604082019050919050565b60006126fc602683612d3c565b9150612707826130a9565b604082019050919050565b600061271f601483612d3c565b915061272a826130f8565b602082019050919050565b6000612742603083612d3c565b915061274d82613121565b604082019050919050565b6000612765602083612d3c565b915061277082613170565b602082019050919050565b6000612788601883612d3c565b915061279382613199565b602082019050919050565b60006127ab603183612d3c565b91506127b6826131c2565b604082019050919050565b60006127ce602083612d3c565b91506127d982613211565b602082019050919050565b6060820160008201516127fa600085018261263c565b50602082015161280d60208501826128d4565b50604082015161282060408501826128b6565b50505050565b600060c08301600083015161283e60008601826128b6565b5060208301518482036020860152612856828261265a565b915050604083015161286b60408601826128d4565b50606083015161287e606086018261263c565b506080830151612891608086018261241a565b5060a083015184820360a08601526128a98282612580565b9150508091505092915050565b6128bf81612e6f565b82525050565b6128ce81612e6f565b82525050565b6128dd81612e79565b82525050565b6128ec81612e79565b82525050565b60006020820190506129076000830184612429565b92915050565b60006040820190506129226000830185612429565b61292f60208301846128c5565b9392505050565b600060a08201905061294b6000830188612429565b61295860208301876128c5565b818103604083015261296a81866125de565b9050818103606083015261297e8185612438565b9050818103608083015261299281846124ad565b90509695505050505050565b600060208201905081810360008301526129b8818461250b565b905092915050565b60006060820190506129d5600083018661264b565b6129e260208301856128e3565b6129ef60408301846128c5565b949350505050565b60006020820190508181036000830152612a118184612693565b905092915050565b60006020820190508181036000830152612a32816126cc565b9050919050565b60006020820190508181036000830152612a52816126ef565b9050919050565b60006020820190508181036000830152612a7281612712565b9050919050565b60006020820190508181036000830152612a9281612735565b9050919050565b60006020820190508181036000830152612ab281612758565b9050919050565b60006020820190508181036000830152612ad28161277b565b9050919050565b60006020820190508181036000830152612af28161279e565b9050919050565b60006020820190508181036000830152612b12816127c1565b9050919050565b6000602082019050612b2e60008301846128c5565b92915050565b600060a082019050612b4960008301886128c5565b8181036020830152612b5b8187612693565b9050612b6a60408301866128e3565b612b77606083018561264b565b612b846080830184612429565b9695505050505050565b6000602082019050612ba360008301846128e3565b92915050565b6000612bb3612bc4565b9050612bbf8282612efa565b919050565b6000604051905090565b600067ffffffffffffffff821115612be957612be8613001565b5b602082029050602081019050919050565b600067ffffffffffffffff821115612c1557612c14613001565b5b612c1e82613049565b9050602081019050919050565b6000819050602082019050919050565b6000819050602082019050919050565b6000819050602082019050919050565b6000819050602082019050919050565b600081519050919050565b600081519050919050565b600081519050919050565b600081519050919050565b600081519050919050565b6000602082019050919050565b6000602082019050919050565b6000602082019050919050565b6000602082019050919050565b600082825260208201905092915050565b600082825260208201905092915050565b600082825260208201905092915050565b600082825260208201905092915050565b600082825260208201905092915050565b600082825260208201905092915050565b600082825260208201905092915050565b6000612d5882612e6f565b9150612d6383612e6f565b9250827fffffffffffffffffffffffffffffffffffffffffffffffffffffffffffffffff03821115612d9857612d97612f74565b5b828201905092915050565b6000612dae82612e6f565b9150612db983612e6f565b9250817fffffffffffffffffffffffffffffffffffffffffffffffffffffffffffffffff0483118215151615612df257612df1612f74565b5b828202905092915050565b6000612e0882612e6f565b9150612e1383612e6f565b925082821015612e2657612e25612f74565b5b828203905092915050565b6000612e3c82612e4f565b9050919050565b60008115159050919050565b600073ffffffffffffffffffffffffffffffffffffffff82169050919050565b6000819050919050565b600060ff82169050919050565b82818337600083830152505050565b60005b83811015612eb3578082015181840152602081019050612e98565b83811115612ec2576000848401525b50505050565b60006002820490506001821680612ee057607f821691505b60208210811415612ef457612ef3612fa3565b5b50919050565b612f0382613049565b810181811067ffffffffffffffff82111715612f2257612f21613001565b5b80604052505050565b6000612f3682612e6f565b91507fffffffffffffffffffffffffffffffffffffffffffffffffffffffffffffffff821415612f6957612f68612f74565b5b600182019050919050565b7f4e487b7100000000000000000000000000000000000000000000000000000000600052601160045260246000fd5b7f4e487b7100000000000000000000000000000000000000000000000000000000600052602260045260246000fd5b7f4e487b7100000000000000000000000000000000000000000000000000000000600052603260045260246000fd5b7f4e487b7100000000000000000000000000000000000000000000000000000000600052604160045260246000fd5b600080fd5b600080fd5b600080fd5b600080fd5b600080fd5b6000601f19601f8301169050919050565b7f456c20616c756d6e6f206e6f207469656e65206c617320636f7272656c61746960008201527f766173206170726f626164617300000000000000000000000000000000000000602082015250565b7f4f776e61626c653a206e6577206f776e657220697320746865207a65726f206160008201527f6464726573730000000000000000000000000000000000000000000000000000602082015250565b7f4573746520637572736f206e6f20657869737465000000000000000000000000600082015250565b7f536f6c6f207075656465206170726f62617220616c756d6e6f7320656c20707260008201527f6f6665736f722064656c20637572736f00000000000000000000000000000000602082015250565b7f456c20616c756d6e6f207961206170726f626f2065737461206d617465726961600082015250565b7f4c6120636f7272656c6174697661206e6f206578697374650000000000000000600082015250565b7f4c61206e6f7461206e6f20736520656e6375656e74726120656e747265206c6160008201527f73206e6f74617320706f7369626c657360000000000000000000000000000000602082015250565b7f4f776e61626c653a2063616c6c6572206973206e6f7420746865206f776e6572600082015250565b61324381612e31565b811461324e57600080fd5b50565b61325a81612e43565b811461326557600080fd5b50565b61327181612e6f565b811461327c57600080fd5b50565b61328881612e79565b811461329357600080fd5b5056fea2646970667358221220ca5b529a9144768cb25284cdcafe7216bbe3d19a750aefd7a1f99fe808a0958b64736f6c63430008060033",
  "immutableReferences": {},
  "source": "pragma solidity ^0.8.0;\n\nimport \"@openzeppelin/contracts/access/Ownable.sol\";\nimport \"./CreditoToken.sol\";\n\ncontract CursosFactory is Ownable, CreditoToken {\n\n    struct Curso {\n        uint id;\n        string nombre;\n        uint8 creditos;\n        bool activo;\n        address profesor;\n        uint[] correlativas; \n    }\n    \n    struct Aprobacion {\n        bool soloCursada;\n        uint8 nota;\n        uint fechaDeAprobacion;\n    }\n    \n    Curso[] public cursos;\n    uint8 notaMaxima=10;\n    uint8 notaMinima=4;\n    uint public cantidadCursos = 0;\n    mapping(address => uint) public creditos;\n    mapping(address => mapping(uint => Aprobacion)) public aprobados;\n    \n    event AproboMateria(address alumno, uint cursoId);\n    \n    modifier onlyProfessor(uint _cursoId) {\n        require(cursos[_cursoId].profesor == msg.sender, \"Solo puede aprobar alumnos el profesor del curso\");\n        _;\n    }\n\n    modifier cursoExistente(uint _cursoId) {\n        require(cursos.length > _cursoId, \"Este curso no existe\");\n        _;\n    }\n    \n    modifier tieneCorrelativas(address _alumno, uint _cursoId) {\n        uint[] memory correlativas = new uint[](cursos[_cursoId].correlativas.length);\n        for(uint i=0; i < cursos[_cursoId].correlativas.length; i++){\n            uint correlativaId = cursos[_cursoId].correlativas[i];\n            require(aprobados[_alumno][correlativaId].soloCursada == false && aprobados[_alumno][correlativaId].nota > 0, \"El alumno no tiene las correlativas aprobadas\");\n        }\n        _;\n    }\n    \n    modifier materiaNoAprobada(address _alumno, uint _cursoId) {\n        Aprobacion memory aprobacion = aprobados[_alumno][_cursoId];\n        require(aprobacion.soloCursada || aprobacion.nota == 0, \"El alumno ya aprobo esta materia\");\n        _;\n    }\n    \n    modifier correlativasExisten(uint8[] memory correlativas) {\n        for(uint i=0; i < correlativas.length; i++){\n            require(correlativas[i] <= cursos.length , \"La correlativa no existe\");\n        }\n        _;\n    }\n    \n    \n    function crearCurso(string memory _nombre, uint8 _creditos, uint8[] memory _correlativas, bool _activo, address _profesor) public onlyOwner correlativasExisten(_correlativas){\n        cursos.push();\n        Curso storage curso = cursos[cantidadCursos];\n        curso.id = cantidadCursos;\n        modificarCurso(cantidadCursos, _nombre, _creditos, _correlativas, _activo, _profesor);\n        cantidadCursos++;\n    }\n    \n    \n    function modificarCurso(uint _cursoId, string memory _nombre, uint8 _creditos, uint8[] memory _correlativas, bool _activo, address _profesor) public onlyOwner cursoExistente(_cursoId) {\n        Curso storage curso = cursos[_cursoId];\n        curso.nombre = _nombre;\n        curso.creditos = _creditos;\n        curso.activo = _activo;\n        curso.profesor = _profesor;\n        cursos[_cursoId].correlativas = _correlativas;\n    }\n    \n    function setearNotaMaxima(uint8 _notaMaxima) public onlyOwner{\n        notaMaxima = _notaMaxima;\n    }\n    \n    function setearNotaMinima(uint8 _notaMinima) public onlyOwner{\n        notaMinima = _notaMinima;\n    }\n    \n    function aprobarAlumno(address _alumno, uint _cursoId, bool _soloCursada, uint8 _nota) public onlyProfessor(_cursoId) tieneCorrelativas( _alumno, _cursoId) materiaNoAprobada(_alumno, _cursoId){\n        require(_nota >= notaMinima && _nota <= notaMaxima, \"La nota no se encuentra entre las notas posibles`\");\n        aprobados[_alumno][_cursoId] = Aprobacion(_soloCursada, _nota, block.timestamp * 1000);\n        if (!_soloCursada) {\n            _transfer(_alumno, cursos[_cursoId].creditos);\n        }\n        emit AproboMateria(_alumno, _cursoId);\n    }\n    \n    function removerAlumnoDelCurso(address _alumno, uint _cursoId) public onlyProfessor(_cursoId) materiaNoAprobada(_alumno, _cursoId) {\n        delete aprobados[_alumno][_cursoId];\n    }\n    \n    function removerCursadasVencidas(address _alumno) public {\n        for(uint i=0; i < cursos.length; i++){\n            if (aprobados[_alumno][cursos[i].id].fechaDeAprobacion < (block.timestamp * 1000 - 548 days) && aprobados[_alumno][cursos[i].id].soloCursada ){\n                delete aprobados[_alumno][cursos[i].id];\n            }\n        }\n    }\n    \n    function _getCantidadAprobaciones(address _alumno) private view returns (uint) {\n        uint j = 0;\n         for(uint i=0; i < cursos.length; i++) {\n           if (aprobados[_alumno][cursos[i].id].nota > 0){\n               j++;\n           }\n        }\n        return j;\n    }\n    \n    function balanceOf(address _owner) override external view returns (uint256 _balance){\n        return creditos[_owner];\n    }\n    \n    function _transfer(address _owner, uint8 _amount) private {\n        creditos[_owner] += _amount;\n    }\n    \n    function getAlumno(address _alumno) public view returns (address, uint,uint[] memory, string[] memory, Aprobacion[] memory){\n        Aprobacion[] memory aprobaciones = new Aprobacion[](_getCantidadAprobaciones(_alumno));\n        uint[] memory cursosId = new uint[](_getCantidadAprobaciones(_alumno));\n        string[] memory cursosName = new string[](_getCantidadAprobaciones(_alumno));\n        uint j = 0;\n        uint i = 0;\n        while(j < _getCantidadAprobaciones(_alumno)) {\n            if (aprobados[_alumno][cursos[i].id].nota > 0){\n                Aprobacion memory aprobacion = aprobados[_alumno][cursos[i].id];\n                cursosId[j] = cursos[i].id;\n                cursosName[j] = cursos[i].nombre; \n                aprobaciones[j] = aprobacion;\n                j++;\n            }\n            i++;\n        }\n        return (_alumno, creditos[_alumno], cursosId, cursosName, aprobaciones);\n    }\n    \n    function getCursos()public view returns (Curso[] memory){\n        return cursos;\n        \n    }\n    \n}",
  "sourcePath": "/home/payas/Desktop/Facultad/Robots/TP2/tp2/contracts/CursosFactory.sol",
  "compiler": {
    "name": "solc",
    "version": "0.8.6+commit.11564f7e.Emscripten.clang"
  },
  "schemaVersion": "3.4.1",
  "updatedAt": "2021-07-06T21:27:57.614Z",
  "networkType": "ethereum",
  "devdoc": {
    "kind": "dev",
    "methods": {
      "owner()": {
        "details": "Returns the address of the current owner."
      },
      "renounceOwnership()": {
        "details": "Leaves the contract without owner. It will not be possible to call `onlyOwner` functions anymore. Can only be called by the current owner. NOTE: Renouncing ownership will leave the contract without an owner, thereby removing any functionality that is only available to the owner."
      },
      "transferOwnership(address)": {
        "details": "Transfers ownership of the contract to a new account (`newOwner`). Can only be called by the current owner."
      }
    },
    "version": 1
  },
  "userdoc": {
    "kind": "user",
    "methods": {},
    "version": 1
  }
}